:020000040000FA
:0400000069EF00F0B4
:060008007C821CED0DF0EE
:100018007C80D8CF01F0E8CF02F0E0CF03F09EAAB1
:1000280018EF00F01AEF00F061EF00F0ABA21FEF3D
:1000380000F021EF00F026EF00F0AB9800F0AB885D
:1000480026EF00F06F0EAE18D8A42DEF00F02FEFBA
:1000580000F039EF00F06F0E766E000E776E000E2E
:10006800786EE7EC0FF039EF00F06C0EAE18D8A4FC
:1000780040EF00F042EF00F04AEF00F06C0E766EB1
:10008800000E786EE7EC0FF061EF00F0720EAE181C
:10009800D8A451EF00F053EF00F061EF00F0720EBA
:1000A800766E000E776EE7EC0FF061EF00F061EF0F
:1000B80000F061EF00F061EF00F003C0E0FF02C064
:1000C800E8FF01C0D8FF7C901000CBEF0CF0405047
:1000D800800B4D6E405040244F6E3FAE76EF00F0DF
:1000E80078EF00F07BEF00F04F807BEF00F04F508F
:1000F800D8B481EF00F083EF00F09AEF00F04F28BA
:10010800D8A489EF00F08BEF00F095EF00F0000E17
:100118003D6E000E3E6E000E3F6E000E406E95EF77
:1001280000F03F8E000E406EA4EF00F0000E3D6E12
:10013800000E3E6E000E3F6E000E406EA4EF00F003
:100148004450800B4E6E4D504E18D8B4AEEF00F0B0
:10015800B0EF00F0B3EF00F04D8CB3EF00F0445077
:1001680044244E6E43AEBBEF00F0BDEF00F0C0EF8D
:1001780000F04E80C0EF00F04E50D8B4C6EF00F04B
:10018800C8EF00F0DFEF00F04E28D8A4CEEF00F063
:10019800D0EF00F0DAEF00F0000E416E000E426E74
:1001A800000E436E000E446EDAEF00F0438E000E30
:1001B800446EE9EF00F0000E416E000E426E000E34
:1001C800436E000E446EE9EF00F04F504E5CD8B01D
:1001D800F0EF00F0F2EF00F01DEF01F04DACF7EF9B
:1001E80000F0F9EF00F0FDEF00F0800E4D1AFDEF82
:1001F80000F04FC050F04EC04FF050C04EF03DC020
:1002080050F041C03DF050C041F03EC050F042C0F7
:100218003EF050C042F03FC050F043C03FF050C0E5
:1002280043F040C050F044C040F050C044F01DEFCF
:1002380001F0000E506E4F50456E466A451E461E30
:10024800454A462A4E50476E486A4550472646500A
:10025800482248BE39EF01F0485009E11A0E475CC0
:10026800D8A039EF01F03BEF01F078EF01F03D50F5
:100278003E103F104010D8A444EF01F047EF01F0C2
:10028800010E48EF01F0000E506E000E3D6E000E9C
:100298003E6E000E3F6E000E406E4EC04FF083EF74
:1002A80001F078EF01F050A05CEF01F05EEF01F093
:1002B80064EF01F0D89050300109506E68EF01F0FA
:1002C800D890503268EF01F03DA06DEF01F06FEF6C
:1002D80001F072EF01F0508E72EF01F040344032BD
:1002E8003F323E323D324F2A4E504F5CD8A07FEF0E
:1002F80001F081EF01F057EF01F083EF01F04DBC01
:1003080088EF01F08AEF01F0D2EF01F04F50D8A446
:1003180090EF01F092EF01F09EEF01F0000E3D6EBC
:10032800000E3E6E000E3F6E000E406E2CEF03F086
:100338002CEF03F041503D2642503E2243503F22CD
:100348004450402240A0ABEF01F0ADEF01F082EF46
:1003580002F050A0B2EF01F0B4EF01F0BAEF01F0F3
:10036800D89050300109506EBEEF01F0D89050324D
:10037800BEEF01F03DA0C3EF01F0C5EF01F0C8EFFB
:1003880001F0508EC8EF01F0403440323F323E3227
:100398003D324F2A82EF02F082EF02F041503D5C7D
:1003A80042503E5843503F584050800A456E445092
:1003B800800A4558D8B0E3EF01F0E5EF01F023EFEC
:1003C80002F03DC045F03EC046F03FC047F040C097
:1003D80048F0451E461E471E481E452A000E462266
:1003E8004722482241504524496E425046204A6ED1
:1003F800435047204B6E445048204C6EFF0E492412
:100408003D6EFF0E4A203E6EFF0E4B203F6EFF0EE4
:100418004C20406E800E4D1A506C5050D8A417EFE7
:1004280002F019EF02F02BEF02F0010E3D26000E4C
:100438003E223F2240222BEF02F02BEF02F04150E8
:100448003D5E42503E5A43503F5A4450405A3D50F8
:100458003E103F104010D8A434EF02F036EF02F0FF
:1004680077EF02F05050D8A43CEF02F03EEF02F0D4
:1004780077EF02F0000E3D6E000E3E6E000E3F6EEE
:10048800000E406E2CEF03F02CEF03F077EF02F034
:10049800D8903D363E363F36403650AE56EF02F0E5
:1004A80058EF02F05BEF02F03D805BEF02F050A0E6
:1004B80060EF02F062EF02F066EF02F0D88050368B
:1004C8006AEF02F0D89050366AEF02F04F50D8B475
:1004D80070EF02F072EF02F077EF02F04F0677EF5D
:1004E80002F077EF02F03FAE7CEF02F07EEF02F011
:1004F8004CEF02F082EF02F082EF02F0000E4E6E37
:1005080050AE89EF02F08BEF02F0A7EF02F050C077
:1005180045F07F0E4516D8B494EF02F096EF02F03E
:100528009AEF02F0010E4E6EA7EF02F03DA09FEF8A
:1005380002F0A1EF02F0A7EF02F0010E4E6EA7EF56
:1005480002F0A7EF02F04E50D8B4ADEF02F0AFEFD3
:1005580002F0E0EF02F0010E3D26000E3E223F229F
:10056800402240A0BAEF02F0BCEF02F0E0EF02F048
:100578003DC045F03EC046F03FC047F040C048F09F
:100588004834483247324632453245C03DF046C0CD
:100598003EF047C03FF048C040F04F28D8B4D7EFEE
:1005A80002F0D9EF02F0E0EF02F04F2AE0EF02F09C
:1005B800E0EF02F0E0EF02F04F28D8B4E6EF02F0E7
:1005C800E8EF02F0F2EF02F04F50D8A4EEEF02F09D
:1005D800F0EF02F008EF03F0F2EF02F0000E3D6ECC
:1005E800000E3E6E000E3F6E000E406E4F50D8A4B7
:1005F80000EF03F002EF03F008EF03F0000E4D6E7A
:1006080008EF03F008EF03F04FA00DEF03F00FEF32
:1006180003F012EF03F03F8E15EF03F03F9E15EF46
:1006280003F0D8904F30406E4DAE1DEF03F01FEF32
:1006380003F022EF03F0408E22EF03F03DC03DF0BF
:100648003EC03EF03FC03FF040C040F02CEF03F00A
:1006580012004050800B496E405040244F6E3FAE10
:1006680038EF03F03AEF03F03DEF03F04F803DEF32
:1006780003F04F50D8B443EF03F045EF03F05AEFBF
:1006880003F04F28D8A44BEF03F04DEF03F057EFDA
:1006980003F0000E3D6E000E3E6E000E3F6E000E23
:1006A800406E57EF03F03F8E64EF03F0000E3D6E8F
:1006B800000E3E6E000E3F6E000E406E64EF03F0BB
:1006C8004450800B491A445044244A6E43AE6FEF9D
:1006D80003F071EF03F074EF03F04A8074EF03F056
:1006E8004A50D8B47AEF03F07CEF03F091EF03F0AF
:1006F8004A28D8A482EF03F084EF03F08EEF03F0CA
:10070800000E416E000E426E000E436E000E446EE7
:100718008EEF03F0438E99EF03F0000E416E000E4A
:10072800426E000E436E000E446E4A50D8B49FEFDE
:1007380003F0A1EF03F0ABEF03F04F50D8A4A7EFFD
:1007480003F0A9EF03F0B7EF03F0ABEF03F0000EEF
:100758003D6E000E3E6E000E3F6E000E406E63EF63
:1007680005F063EF05F043503D02F3CF54F0F4CFAA
:1007780055F054504B6E4C6A4D6A4E6A5550506E47
:10078800516A526A536A42503E02F3CF54F0F4CF92
:1007980055F054504B26000E4C224D224E225550F7
:1007A8005026000E51225222532241503F02F3CFCD
:1007B80054F0F4CF55F054504B26000E4C224D22E5
:1007C8004E2255505026000E5122522253224DC01F
:1007D8004EF04CC04DF04BC04CF04B6A41503E02BD
:1007E800F3CF54F0F4CF55F054504B2655504C22CB
:1007F800000E4D22000E4E2242503D02F3CF54F01F
:10080800F4CF55F054504B2655504C22000E4D2233
:10081800000E4E224DC04EF04CC04DF04BC04CF077
:100828004B6A41503D02F3CF54F0F4CF55F0545089
:100838004B2655504C22000E4D22000E4E2243509E
:100848003E02F3CF54F0F4CF55F054505026555093
:100858005122000E5222000E532242503F02F3CF83
:1008680054F0F4CF55F05450502655505122000EF4
:100878005222000E532243503F02F3CF54F0F4CFDC
:1008880055F05450456E5550466E476A486A47C001
:1008980048F046C047F045C046F0456A45505026E6
:1008A8004650512247505222485053224BC045F0DF
:1008B8004CC046F04DC047F04EC048F0190E6AEFE4
:1008C80004F0D8904832473246324532E82E65EF78
:1008D80004F0455050264650512247505222485065
:1008E80053224DC04EF04CC04DF04BC04CF04B6AFB
:1008F8004A504FC045F0466A4526000E4622820EF1
:100908004524546EFF0E4620556EA2EF04F0D89091
:1009180050365136523653364EAE95EF04F097EFB7
:1009280004F098EF04F05080D8904B364C364D3692
:100938004E365406D8A05506A2EF04F052AEA7EFE3
:1009480004F0A9EF04F08BEF04F0ABEF04F0000E15
:100958004A6E4EAEB2EF04F0B4EF04F0DCEF04F0F0
:10096800FF0E4B14456EFF0E4C14466EFF0E4D14D1
:10097800476E7F0E4E14486E45504610471048107B
:10098800D8B4C9EF04F0CBEF04F0CFEF04F0010EB8
:100998004A6EDCEF04F050A0D4EF04F0D6EF04F078
:1009A800DCEF04F0010E4A6EDCEF04F0DCEF04F03B
:1009B8004A50D8B4E2EF04F0E4EF04F00CEF05F08D
:1009C800010E5026000E51225222532253A0EFEF5F
:1009D80004F0F1EF04F00CEF05F050C045F051C001
:1009E80046F052C047F053C048F0483448324732C6
:1009F8004632453245C050F046C051F047C052F02B
:100A080048C053F0544A552A0CEF05F00CEF05F096
:100A180055BE17EF05F0555008E15428D8A017EF38
:100A280005F019EF05F023EF05F0000E506E000EEB
:100A3800516E800E526E7F0E536E57EF05F055BE05
:100A480030EF05F0555006E15404D8B02EEF05F00C
:100A580030EF05F03CEF05F0000E506E000E516EC1
:100A6800000E526E000E536E000E496E57EF05F0E1
:100A780054C04FF0FF0E5016FF0E51167F0E52163F
:100A8800000E53164FA04BEF05F04DEF05F050EF59
:100A980005F0528E50EF05F0D8904F30536E57EF57
:100AA80005F057EF05F04950531250C03DF051C0C2
:100AB8003EF052C03FF053C040F063EF05F0120023
:100AC8002750800B346E275027243B6E26AE6FEFDD
:100AD80005F071EF05F074EF05F03B8074EF05F059
:100AE8003B50D8B47AEF05F07CEF05F093EF05F0B2
:100AF8003B28D8A482EF05F084EF05F08EEF05F0CF
:100B0800000E246E000E256E000E266E000E276E57
:100B18008EEF05F0268E000E276E9DEF05F0000E75
:100B2800246E000E256E000E266E000E276E9DEFB9
:100B380005F02B50800B341A2B502B243C6E2AAE18
:100B4800A8EF05F0AAEF05F0ADEF05F03C80ADEF9A
:100B580005F03C50D8B4B3EF05F0B5EF05F0CCEF95
:100B680005F03C28D8A4BBEF05F0BDEF05F0C7EFB2
:100B780005F0000E286E000E296E000E2A6E000E7B
:100B88002B6EC7EF05F02A8E000E2B6ED6EF05F000
:100B9800000E286E000E296E000E2A6E000E2B6EB7
:100BA800D6EF05F0285029102A102B10D8A4DFEF13
:100BB80005F0E1EF05F0FBEF05F0000E246E000EE6
:100BC800256E000E266E000E276E800E26127F0EF2
:100BD80027123450271224C024F025C025F026C03F
:100BE80026F027C027F073EF07F073EF07F03B50AC
:100BF800D8A401EF06F003EF06F017EF06F0000E99
:100C0800246E000E256E000E266E000E276E24C080
:100C180024F025C025F026C026F027C027F073EF62
:100C280007F073EF07F03C502C6E2D6A2C1E2D1E1A
:100C38002C4A2D2A3B502E6E2F6A2C502E262D50D2
:100C48002F227F0E2E24356E000E2F20366E24C0E4
:100C580030F025C031F026C032F027C033F0000E46
:100C6800246E000E256E000E266E000E276E000EF6
:100C7800376E000E386E000E396E000E3A6E000E9A
:100C88003C6E83EF06F03C50D8B44DEF06F04FEFC2
:100C980006F068EF06F0D890303631363236333603
:100CA800D89024362536263627363AAE5EEF06F03B
:100CB80060EF06F061EF06F02480D89037363836BA
:100CC80039363A3668EF06F02850305C29503158EA
:100CD8002A5032582B503358D8A075EF06F077EFCA
:100CE80006F082EF06F03A8C2850305E2950315ACF
:100CF8002A50325A2B50335A82EF06F03C2A190EEA
:100D08003C6489EF06F08BEF06F047EF06F08DEFB5
:100D180006F03050311032103310D8B496EF06F088
:100D280098EF06F0B4EF06F03780B4EF06F0B4EFB2
:100D380006F0D89024362536263627363AAEA7EF61
:100D480006F0A9EF06F0AAEF06F02480D89037360F
:100D5800383639363A363506D8A03606B4EF06F0B6
:100D680026AEB9EF06F0BBEF06F09DEF06F0BDEF3B
:100D780006F0000E3C6E3AAEC4EF06F0C6EF06F081
:100D8800EEEF06F0FF0E37142C6EFF0E38142D6EA2
:100D9800FF0E39142E6E7F0E3A142F6E2C502D1024
:100DA8002E102F10D8B4DBEF06F0DDEF06F0E1EFE0
:100DB80006F0010E3C6EEEEF06F024A0E6EF06F01A
:100DC800E8EF06F0EEEF06F0010E3C6EEEEF06F0EF
:100DD800EEEF06F03C50D8B4F4EF06F0F6EF06F06C
:100DE8001EEF07F0010E2426000E252226222722B8
:100DF80027A001EF07F003EF07F01EEF07F024C06C
:100E08002CF025C02DF026C02EF027C02FF02F344F
:100E18002F322E322D322C322CC024F02DC025F04A
:100E28002EC026F02FC027F0354A362A1EEF07F0CD
:100E38001EEF07F036BE29EF07F0365008E13528D7
:100E4800D8A029EF07F02BEF07F038EF07F0000ED6
:100E5800366E3568000E246E000E256E000E266E66
:100E6800000E276E38EF07F036BE45EF07F0365014
:100E780006E13504D8B043EF07F045EF07F055EF2A
:100E880007F0000E366E000E356E000E246E000E52
:100E9800256E000E266E000E276E000E346E55EF7E
:100EA80007F035C03BF03BA05CEF07F05EEF07F0C2
:100EB80061EF07F0268E64EF07F0269E64EF07F0D7
:100EC800D8903B30276E3450271224C024F025C018
:100ED80025F026C026F027C027F073EF07F0120090
:100EE8001E6E1E50D8B47BEF07F07DEF07F09FEF22
:100EF80007F019BE84EF07F082EF07F09FEF07F0C5
:100F080016C01AF017C01BF018C01CF019C01DF04D
:100F18001A1E1B1E1C1E1D1E1A2A000E1B221C2216
:100F28001D221AC020F01BC021F01CC022F01DC0D9
:100F380023F0A9EF07F016C020F017C021F018C061
:100F480022F019C023F0A9EF07F016501710181057
:100F58001910D8A4B2EF07F0B4EF07F0C0EF07F00C
:100F6800000E166E000E176E000E186E000E196E2B
:100F780061EF08F061EF08F0960E1F6ECCEF07F0F6
:100F88001F2AD8902332223221322032CCEF07F0A8
:100F9800000E20141A6E000E21141B6E000E22146F
:100FA8001C6EFE0E23141D6E1A501B101C101D10F3
:100FB800D8A4E1EF07F0E3EF07F0C4EF07F0F3EF91
:100FC80007F0F3EF07F01F2A010E2026000E21225A
:100FD80022222322D8902332223221322032000EBC
:100FE80020141A6E000E21141B6E000E22141C6EA3
:100FF800FF0E23141D6E1A501B101C101D10D8A4B0
:1010080008EF08F00AEF08F0E7EF07F016EF08F02E
:1010180016EF08F01F06D8902036213622362336E0
:1010280016EF08F022BE1BEF08F01DEF08F027EFBF
:1010380008F0020E1F6023EF08F025EF08F00EEF0E
:1010480008F027EF08F01FB02CEF08F02EEF08F09B
:1010580031EF08F0229E31EF08F0D8901F321FC000
:101068001AF01B6A1C6A1D6A1AC01DF01C6A1B6AEA
:101078001A6A1A5020121B5021121C5022121D509D
:1010880023121E50D8B44BEF08F04DEF08F057EF7D
:1010980008F019BE54EF08F052EF08F057EF08F0C7
:1010A800238E57EF08F020C016F021C017F022C099
:1010B80018F023C019F061EF08F0120058345934C1
:1010C8005F6E5F50D8A46BEF08F06DEF08F079EF12
:1010D80008F0000E566E000E576E000E586E000E89
:1010E800596E0AEF09F00AEF09F056C05AF057C0D6
:1010F8005BF058C05CF059C05DF0200E89EF08F035
:10110800D8905D325C325B325A32E82E84EF08F0B8
:101118005A505E6E588EFF0E5616FF0E5716FF0E6B
:101128005816000E5916960E5F5E5FBEA0EF08F0C7
:101138009EEF08F0C4EF08F05F50800A970FD8B010
:10114800A8EF08F0AAEF08F0B8EF08F0000E566E06
:10115800000E576E000E586E000E596E0AEF09F019
:101168000AEF09F0B8EF08F0D890593258325732E0
:1011780056325F3EB8EF08F0EEEF08F0EEEF08F0F9
:101188001F0E5F64CAEF08F0CCEF08F0E2EF08F03A
:10119800000E566E000E576E000E586E000E596EF9
:1011A8000AEF09F00AEF09F0E2EF08F0D890563696
:1011B8005736583659365F06E2EF08F05F50D8A424
:1011C800E8EF08F0EAEF08F0DAEF08F0EEEF08F0E1
:1011D800EEEF08F05E50D8B4F4EF08F0F6EF08F040
:1011E80000EF09F0591E581E571E566C000E572264
:1011F8005822592200EF09F056C056F057C057F050
:1012080058C058F059C059F00AEF09F01200000E02
:101218000D6E0BBE14EF09F012EF09F020EF09F084
:101228000B1E0A1E091E086C000E09220A220B2238
:10123800010E0D6E20EF09F007BE27EF09F025EF2C
:1012480009F033EF09F0071E061E051E046C000E98
:10125800052206220722010E0D1A33EF09F0000EAF
:101268000E6E000E0F6E000E106E000E116E0850FE
:1012780009100A100B10D8B444EF09F046EF09F032
:1012880088EF09F0010E0C6E52EF09F0D89008367D
:1012980009360A360B360C2A52EF09F00BAE57EF17
:1012A80009F059EF09F04AEF09F05DEF09F05DEF39
:1012B80009F0D8900E360F36103611360850045CF7
:1012C800095005580A5006580B500758D8A06FEF18
:1012D80009F071EF09F07CEF09F00850045E09503D
:1012E800055A0A50065A0B50075A0E807CEF09F02F
:1012F800D8900B320A32093208320C2E5DEF09F011
:1013080088EF09F088EF09F00D50D8B48EEF09F096
:1013180090EF09F09AEF09F0111E101E0F1E0E6CC7
:10132800000E0F22102211229AEF09F00EC004F0CD
:101338000FC005F010C006F011C007F0A4EF09F0C7
:101348001200000E6B6E000E6A6E9494300E676E7B
:10135800F40E126E010E136E000E146E000E156E52
:10136800C0EC0EF0000E616E000E606EAAEC0BF081
:10137800D2EC0FF0C0EF09F0000E696E000E686E37
:1013880013EF0AF0480E6A186B10D8A4CEEF09F0D4
:10139800D0EF09F0D6EF09F0000E6B6E000E6A6E02
:1013A800D6EF09F0000E086E010E096E6AC00AF049
:1013B8006BC00BF0B3EC0AF07850D8A4E6EF09F054
:1013C800E8EF09F0ECEF09F02BEF0AF02BEF0AF049
:1013D800080E6A246A6E000E6B206B6ED890683413
:1013E800D96E6934DA6E800ED926000EDA22DECF85
:1013F8007AF0DDCF7BF0E4C004F0E5C005F0E0C092
:1014080006F0E1C007F034EC0BF004C0F3F005C0BF
:10141800F4F023EC0FF0684A692A13EF0AF06750DA
:10142800646E656A6450685C6950800A666E6550CF
:10143800800A6658D8A023EF0AF025EF0AF0C6EF15
:1014480009F0C0EF09F0C0EF09F0C0EF09F0120091
:10145800000E6B6E000E6A6E9494300E676EF40E7A
:10146800126E010E136E000E146E000E156EC0EC97
:101478000EF0000E616E000E606EAAEC0BF0D2EC5E
:101488000FF047EF0AF0000E696E000E686E9AEFD3
:101498000AF0480E6A186B10D8A455EF0AF057EFF7
:1014A8000AF05DEF0AF0000E6B6E000E6A6E5DEFDB
:1014B8000AF0000E086E020E096E6AC00AF06BC0D0
:1014C8000BF0B3EC0AF07750D8A46DEF0AF06FEF89
:1014D8000AF073EF0AF0B2EF0AF0B2EF0AF0080E62
:1014E8006A246A6E000E6B206B6ED8906834D96ED1
:1014F8006934DA6E800ED926000EDA22DECF7AF051
:10150800DDCF7BF0E4C004F0E5C005F0E0C006F0F4
:10151800E1C007F034EC0BF004C0F3F005C0F4F0C0
:1015280023EC0FF0684A692A9AEF0AF06750646E54
:10153800656A6450685C6950800A666E6550800A06
:101548006658D8A0AAEF0AF0ACEF0AF04DEF0AF0FF
:1015580047EF0AF047EF0AF047EF0AF01200D89079
:101568000A34D96E0B34DA6E0850D9260950DA22BB
:10157800DF50066E010EC8EC0FF00A4A0B2AD8900D
:101588000A34D96E0B34DA6E0850D9260950DA229B
:10159800DF50066E020EC8EC0FF00A4A0B2AD890EC
:1015A8000A34D96E0B34DA6E0850D9260950DA227B
:1015B800DF50066E030EC8EC0FF00A4A0B2AD890CB
:1015C8000A34D96E0B34DA6E0850D9260950DA225B
:1015D800DF50066E040EC8EC0FF00A4A0B2AD890AA
:1015E8000A34D96E0B34DA6E0850D9260950DA223B
:1015F800DF50066E050EC8EC0FF00A4A0B2AD89089
:101608000A34D96E0B34DA6E0850D9260950DA221A
:10161800DF50066E060EC8EC0FF00A4A0B2AD89067
:101628000A34D96E0B34DA6E0850D9260950DA22FA
:10163800DF50066E070EC8EC0FF00A4A0B2AD89046
:101648000A34D96E0B34DA6E0850D9260950DA22DA
:10165800DF50066E080EC8EC0FF00A4A0B2A12007B
:10166800000E096E07BE3DEF0BF03BEF0BF045EFA8
:101678000BF0066C071ED8B0072A010E096E45EF5D
:101688000BF005BE4CEF0BF04AEF0BF054EF0BF0EC
:10169800046C051ED8B0052A010E091A54EF0BF088
:1016A800000E0B6E000E0A6E06500710D8B45FEFDE
:1016B8000BF061EF0BF095EF0BF0010E086E6BEF7E
:1016C8000BF0D89006360736082A6BEF0BF007AEFA
:1016D80070EF0BF072EF0BF065EF0BF076EF0BF09D
:1016E80076EF0BF0D8900A360B360650045C07509C
:1016F8000558D8A082EF0BF084EF0BF08BEF0BF0BE
:101708000650045E0750055A0A808BEF0BF0D890FC
:1017180007320632082E76EF0BF095EF0BF095EFB7
:101728000BF00950D8B49BEF0BF09DEF0BF0A3EF33
:101738000BF00A6C0B1ED8B00B2AA3EF0BF00AC0F3
:1017480004F00BC005F0A9EF0BF01200040E615C69
:10175800D8B0B1EF0BF0B3EF0BF014EF0CF04FEC87
:101768000FF012C016F013C017F0000E17BEFF0ED0
:10177800186E196E010E74EC07F016C041F017C010
:1017880042F018C043F019C044F0000E286EC00E95
:10179800296E7F0E2A6E440E2B6E60C016F061C053
:1017A80017F0186A196A000E74EC07F016C024F0D6
:1017B80017C025F018C026F019C027F064EC05F012
:1017C80024C03DF025C03EF026C03FF027C040F0C1
:1017D8002DEC03F03DC056F03EC057F03FC058F026
:1017E80040C059F062EC08F056C060F057C061F094
:1017F800BD9A60B002EF0CF005EF0CF0BD8806EF63
:101808000CF0BD9860C062F061C063F0D89063329C
:101818006232D890633262326250BE6E14EF0CF0BE
:10182800120072EC0CF0BBEC0FF0ADEC0FF09580F1
:1018380095821FEF0CF0000E0001FB6F010EFA6F8E
:10184800FBBF30EF0CF0FB5109E1090EFA5DD8A09F
:1018580030EF0CF032EF0CF036EF0CF04EEF0CF0EE
:101868004EEF0CF0000E066EFA51C8EC0FF00001B6
:10187800FA4BFB2BFBBF4AEF0CF0FB5109E1090EB9
:10188800FA5DD8A04AEF0CF04CEF0CF036EF0CF0F4
:101898004EEF0CF07850D8B454EF0CF056EF0CF033
:1018A8005CEF0CF0A5EC09F0F3EC0EF06CEF0CF02B
:1018B8007750D8B462EF0CF064EF0CF06CEF0CF0DA
:1018C8002CEC0AF0F3EC0EF06CEF0CF06CEF0CF073
:1018D8004DEC0EF01FEF0CF069EF00F0400EC76EF4
:1018E800300EC66E0F0EC16E929A94969488949A92
:1018F8008B86070E066E6E50C8EC0FF0000E066E53
:101908007050C8EC0FF0010E066E6D50C8EC0FF069
:10191800000E066E6C50C8EC0FF0000E0A6E010E39
:10192800096E0ABEA1EF0CF00A5009E1090E095C24
:10193800D8A0A1EF0CF0A3EF0CF0A7EF0CF0BEEFCE
:101948000CF0BEEF0CF0000E066E0950C8EC0FF05C
:10195800094A0A2A0ABEBAEF0CF00A5009E1090E30
:10196800095CD8A0BAEF0CF0BCEF0CF0A7EF0CF0B4
:10197800BEEF0CF0010E066E6F50C8EC0FF00D0EA6
:10198800086EFC0EE82EFED7082EFCD712000A0EB1
:10199800F66E1C0EF76E000EF86E02EE00F010EEFA
:1019A80090F00900F5CFEEFFE550E150FAE17A0E2C
:1019B800F66E1B0EF76E000EF86E01EE00F010EEDC
:1019C80090F00900F5CFEEFFE550E150FAE1160E70
:1019D800F66E1D0EF76E000EF86E00EE80F010EE3B
:1019E80069F00900F5CFEEFFE550E150FAE1B00EDD
:1019F800F66E1F0EF76E000EF86E00EE6CF010EE2D
:101A08000AF00900F5CFEEFFE550E150FAE100EEEB
:101A1800E9F0100EEE6AE806FDE17B6A7A6A796AF7
:101A2800786A776A766A7C907C92000115EF0CF0F0
:101A38000600F0A222EF0DF024EF0DF044EF0DF0B8
:101A48007704D8A42AEF0DF02DEF0DF0010E2EEF3C
:101A58000DF0000E776E7750D8B435EF0DF037EFF4
:101A68000DF03BEF0DF06C0E766E3DEF0DF06F0E46
:101A7800766E000E786EF0926BEF0DF06BEF0DF056
:101A8800F0A049EF0DF04BEF0DF06BEF0DF078047F
:101A9800D8A451EF0DF054EF0DF0010E55EF0DF0F5
:101AA800000E786E7850D8B45CEF0DF05EEF0DF054
:101AB80062EF0DF0720E766E64EF0DF06F0E766EBB
:101AC800000E776EF0906BEF0DF06BEF0DF07C92DF
:101AD8001100949C948E60C016F061C017F062C02B
:101AE80018F063C019F0010E74EC07F016C028F066
:101AF80017C029F018C02AF019C02BF0000E246E68
:101B0800240E256EF40E266E470E276E64EC05F043
:101B180024C03DF025C03EF026C03FF027C040F06D
:101B2800000E416E000E426E800E436EBF0E446E74
:101B38006BEC00F03DC064F03EC065F03FC066F05D
:101B480040C067F064C056F065C057F066C058F0F2
:101B580067C059F062EC08F05650AF6E200EAC6EBC
:101B6800900EAB6E9E889E9A9D989F989D8A9F9A8C
:101B78001200C30066003C009900C30066003C00E8
:101B880018008100C30066003C009900C30066008D
:101B98003C0018008100C30066003C009900C300A7
:101BA80066003C0018008100C30066003C009900F4
:101BB800C30066003C0018008100C30066003C00BA
:101BC8009900C30066003C0018008100C30066004D
:101BD8003C009900C30066003C0018008100C30067
:101BE80066003C009900C30066003C0018008100B4
:101BF800C30066003C009900C30066003C00180062
:101C0800810018003C006600C30099003C00660093
:101C1800C3003C006600C30099003C006600C30096
:101C280081006600C30099003C006600C300810083
:101C38001800C30099003C006600C300810018002A
:101C48003C0099003C006600C300810018003C007D
:101C580066003C006600C300810018003C00660076
:101C6800C3006600C300810018003C006600C30082
:101C78009900C300810018003C006600C300990069
:101C88003C00810018003C006600C30099003C003D
:101C98006600DDEC0FF00001F96F6C0EF919D8A49D
:101CA80058EF0EF05AEF0EF062EF0EF0000E786E5D
:101CB800010E776E2CEC0AF08AEF0EF0720E00011E
:101CC800F919D8A46AEF0EF06CEF0EF074EF0EF06D
:101CD800000E776E010E786EA5EC09F08AEF0EF013
:101CE8006F0E0001F919D8A47CEF0EF07EEF0EF00C
:101CF8008AEF0EF0000E776E000E786EF3EC0EF0A1
:101D08008AEF0EF08AEF0EF08AEF0EF0120006014D
:101D1800060188018801B801B801880188015E01BF
:101D28005E014A014A0126012601060106018801D1
:101D380088015E015E014A014A01260126018801E7
:101D480088015E015E014A014A0126012601060159
:101D5800060188018801B801B801880188015E017F
:101D68005E014A014A012601260106010601010019
:071D78000000E80308070664
:101D8000000E046E090E056E3D0E066E000E076E07
:101D900012C016F013C017F014C018F015C019F0D7
:101DA000020ED8901636173618361936E82ED1EFAF
:101DB0000EF0040ED8901636173618361936E82E5F
:101DC000DAEF0EF016C008F017C009F018C00AF0DC
:101DD00019C00BF00BEC09F00404CB6E12C07AF0C2
:101DE00013C07BF01200E4EC0FF0000E096E010E40
:101DF000086E09BE05EF0FF0095009E1090E085CF5
:101E0000D8A005EF0FF007EF0FF00BEF0FF022EF68
:101E10000FF022EF0FF0000E066E0850C8EC0FF026
:101E2000084A092A09BE1EEF0FF0095009E1090E00
:101E3000085CD8A01EEF0FF020EF0FF00BEF0FF0B3
:101E400022EF0FF012007BBE2EEF0FF07B5008E167
:101E50007A04D8A02EEF0FF030EF0FF04EEF0FF016
:101E60007AC012F07BC013F0000E13BEFF0E146E8A
:101E7000156EC0EC0EF0010E616E6068AAEC0BF0FE
:101E8000F3C004F0F4C005F098EC0FF0000E616EA2
:101E9000000E606EAAEC0BF04EEF0FF01200000E79
:101EA000046E090E056E3D0E066E000E076E7AC0BA
:101EB00014F07BC015F0143A153AF00E15161450B4
:101EC0000F0B1512F00E141614C008F015C009F00F
:101ED000000E09BEFF0E0A6E0B6E0BEC09F004C07B
:101EE00012F005C013F075EF0FF01200056EC9CFA8
:101EF00004F09E96C69E05C0C9FFC6AE82EF0FF0E5
:101F000084EF0FF08CEF0FF097EF0FF097EF0FF0DB
:101F100097EF0FF08CEF0FF09EA691EF0FF093EF7D
:101F20000FF08CEF0FF097EF0FF097EF0FF012001C
:101F3000A1EF0FF00406D8A00506C60E00D0E82ECB
:101F4000FDD704500510D8A4A8EF0FF0AAEF0FF0AA
:101F50009AEF0FF0ACEF0FF0120093809382000E17
:101F6000F16EF090F086F08CF092F088F08EF28EA8
:101F7000F28CD08E1200720ED36E800E606E250E23
:101F8000616E000E626E000E636E6DEC0DF012005D
:101F9000076E899A075076EC0FF0065076EC0FF03A
:101FA000898A1200E1EC0FF0CA80CA82CA8412004A
:101FB0000F0C0B0A0905040302017650E0EF0FF045
:101FC0001200BD86BD841200BD96BD941200BD9660
:041FD000BD941200AA
:020000040020DA
:08000000FFFFFFFFFFFFFFFF00
:020000040030CA
:0E000000FF881F00FF8381FF0FC00FE00F403D
:00000001FF
